{
  "_format": "hh-sol-artifact-1",
  "contractName": "CredentialVerification",
  "sourceName": "contracts/CredentialVerification.sol",
  "abi": [
    {
      "inputs": [],
      "stateMutability": "nonpayable",
      "type": "constructor"
    },
    {
      "anonymous": false,
      "inputs": [
        {
          "indexed": true,
          "internalType": "bytes32",
          "name": "credentialHash",
          "type": "bytes32"
        },
        {
          "indexed": false,
          "internalType": "bytes32",
          "name": "accessToken",
          "type": "bytes32"
        }
      ],
      "name": "AccessTokenUpdated",
      "type": "event"
    },
    {
      "anonymous": false,
      "inputs": [
        {
          "indexed": true,
          "internalType": "bytes32",
          "name": "credentialHash",
          "type": "bytes32"
        },
        {
          "indexed": true,
          "internalType": "address",
          "name": "holder",
          "type": "address"
        },
        {
          "indexed": true,
          "internalType": "address",
          "name": "issuer",
          "type": "address"
        }
      ],
      "name": "CredentialCreated",
      "type": "event"
    },
    {
      "anonymous": false,
      "inputs": [
        {
          "indexed": true,
          "internalType": "bytes32",
          "name": "role",
          "type": "bytes32"
        },
        {
          "indexed": true,
          "internalType": "bytes32",
          "name": "previousAdminRole",
          "type": "bytes32"
        },
        {
          "indexed": true,
          "internalType": "bytes32",
          "name": "newAdminRole",
          "type": "bytes32"
        }
      ],
      "name": "RoleAdminChanged",
      "type": "event"
    },
    {
      "anonymous": false,
      "inputs": [
        {
          "indexed": true,
          "internalType": "bytes32",
          "name": "role",
          "type": "bytes32"
        },
        {
          "indexed": true,
          "internalType": "address",
          "name": "account",
          "type": "address"
        },
        {
          "indexed": true,
          "internalType": "address",
          "name": "sender",
          "type": "address"
        }
      ],
      "name": "RoleGranted",
      "type": "event"
    },
    {
      "anonymous": false,
      "inputs": [
        {
          "indexed": true,
          "internalType": "bytes32",
          "name": "role",
          "type": "bytes32"
        },
        {
          "indexed": true,
          "internalType": "address",
          "name": "account",
          "type": "address"
        },
        {
          "indexed": true,
          "internalType": "address",
          "name": "sender",
          "type": "address"
        }
      ],
      "name": "RoleRevoked",
      "type": "event"
    },
    {
      "inputs": [],
      "name": "DEFAULT_ADMIN_ROLE",
      "outputs": [
        {
          "internalType": "bytes32",
          "name": "",
          "type": "bytes32"
        }
      ],
      "stateMutability": "view",
      "type": "function"
    },
    {
      "inputs": [],
      "name": "ISSUER_ROLE",
      "outputs": [
        {
          "internalType": "bytes32",
          "name": "",
          "type": "bytes32"
        }
      ],
      "stateMutability": "view",
      "type": "function"
    },
    {
      "inputs": [
        {
          "internalType": "address",
          "name": "_holder",
          "type": "address"
        },
        {
          "internalType": "string",
          "name": "_issuerName",
          "type": "string"
        },
        {
          "internalType": "string",
          "name": "_holderName",
          "type": "string"
        },
        {
          "internalType": "string",
          "name": "_title",
          "type": "string"
        },
        {
          "internalType": "string",
          "name": "_description",
          "type": "string"
        },
        {
          "internalType": "uint256",
          "name": "_dateIssued",
          "type": "uint256"
        },
        {
          "internalType": "uint256",
          "name": "_dateExpired",
          "type": "uint256"
        }
      ],
      "name": "createCredential",
      "outputs": [
        {
          "internalType": "bytes32",
          "name": "",
          "type": "bytes32"
        }
      ],
      "stateMutability": "nonpayable",
      "type": "function"
    },
    {
      "inputs": [
        {
          "internalType": "bytes32",
          "name": "_credentialHash",
          "type": "bytes32"
        }
      ],
      "name": "generateAccessToken",
      "outputs": [],
      "stateMutability": "nonpayable",
      "type": "function"
    },
    {
      "inputs": [
        {
          "internalType": "bytes32",
          "name": "_credentialHash",
          "type": "bytes32"
        },
        {
          "internalType": "address",
          "name": "_requester",
          "type": "address"
        }
      ],
      "name": "getAccessToken",
      "outputs": [
        {
          "internalType": "bytes32",
          "name": "",
          "type": "bytes32"
        }
      ],
      "stateMutability": "view",
      "type": "function"
    },
    {
      "inputs": [
        {
          "internalType": "address",
          "name": "_holder",
          "type": "address"
        }
      ],
      "name": "getCredentialsByHolder",
      "outputs": [
        {
          "components": [
            {
              "internalType": "address",
              "name": "issuer",
              "type": "address"
            },
            {
              "internalType": "address",
              "name": "holder",
              "type": "address"
            },
            {
              "internalType": "string",
              "name": "issuerName",
              "type": "string"
            },
            {
              "internalType": "string",
              "name": "holderName",
              "type": "string"
            },
            {
              "internalType": "string",
              "name": "title",
              "type": "string"
            },
            {
              "internalType": "string",
              "name": "description",
              "type": "string"
            },
            {
              "internalType": "uint256",
              "name": "dateIssued",
              "type": "uint256"
            },
            {
              "internalType": "uint256",
              "name": "dateExpired",
              "type": "uint256"
            },
            {
              "internalType": "bytes32",
              "name": "accessToken",
              "type": "bytes32"
            },
            {
              "internalType": "uint256",
              "name": "accessTokenValidUntil",
              "type": "uint256"
            }
          ],
          "internalType": "struct CredentialVerification.Credential[]",
          "name": "",
          "type": "tuple[]"
        },
        {
          "internalType": "bytes32[]",
          "name": "",
          "type": "bytes32[]"
        }
      ],
      "stateMutability": "view",
      "type": "function"
    },
    {
      "inputs": [
        {
          "internalType": "address",
          "name": "_requester",
          "type": "address"
        },
        {
          "internalType": "bytes32",
          "name": "_credentialHash",
          "type": "bytes32"
        }
      ],
      "name": "getOneCredentialByHolder",
      "outputs": [
        {
          "components": [
            {
              "internalType": "address",
              "name": "issuer",
              "type": "address"
            },
            {
              "internalType": "address",
              "name": "holder",
              "type": "address"
            },
            {
              "internalType": "string",
              "name": "issuerName",
              "type": "string"
            },
            {
              "internalType": "string",
              "name": "holderName",
              "type": "string"
            },
            {
              "internalType": "string",
              "name": "title",
              "type": "string"
            },
            {
              "internalType": "string",
              "name": "description",
              "type": "string"
            },
            {
              "internalType": "uint256",
              "name": "dateIssued",
              "type": "uint256"
            },
            {
              "internalType": "uint256",
              "name": "dateExpired",
              "type": "uint256"
            },
            {
              "internalType": "bytes32",
              "name": "accessToken",
              "type": "bytes32"
            },
            {
              "internalType": "uint256",
              "name": "accessTokenValidUntil",
              "type": "uint256"
            }
          ],
          "internalType": "struct CredentialVerification.Credential",
          "name": "",
          "type": "tuple"
        }
      ],
      "stateMutability": "view",
      "type": "function"
    },
    {
      "inputs": [
        {
          "internalType": "bytes32",
          "name": "role",
          "type": "bytes32"
        }
      ],
      "name": "getRoleAdmin",
      "outputs": [
        {
          "internalType": "bytes32",
          "name": "",
          "type": "bytes32"
        }
      ],
      "stateMutability": "view",
      "type": "function"
    },
    {
      "inputs": [
        {
          "internalType": "bytes32",
          "name": "role",
          "type": "bytes32"
        },
        {
          "internalType": "address",
          "name": "account",
          "type": "address"
        }
      ],
      "name": "grantRole",
      "outputs": [],
      "stateMutability": "nonpayable",
      "type": "function"
    },
    {
      "inputs": [
        {
          "internalType": "bytes32",
          "name": "role",
          "type": "bytes32"
        },
        {
          "internalType": "address",
          "name": "account",
          "type": "address"
        }
      ],
      "name": "hasRole",
      "outputs": [
        {
          "internalType": "bool",
          "name": "",
          "type": "bool"
        }
      ],
      "stateMutability": "view",
      "type": "function"
    },
    {
      "inputs": [
        {
          "internalType": "bytes32",
          "name": "role",
          "type": "bytes32"
        },
        {
          "internalType": "address",
          "name": "account",
          "type": "address"
        }
      ],
      "name": "renounceRole",
      "outputs": [],
      "stateMutability": "nonpayable",
      "type": "function"
    },
    {
      "inputs": [
        {
          "internalType": "bytes32",
          "name": "role",
          "type": "bytes32"
        },
        {
          "internalType": "address",
          "name": "account",
          "type": "address"
        }
      ],
      "name": "revokeRole",
      "outputs": [],
      "stateMutability": "nonpayable",
      "type": "function"
    },
    {
      "inputs": [
        {
          "internalType": "bytes4",
          "name": "interfaceId",
          "type": "bytes4"
        }
      ],
      "name": "supportsInterface",
      "outputs": [
        {
          "internalType": "bool",
          "name": "",
          "type": "bool"
        }
      ],
      "stateMutability": "view",
      "type": "function"
    },
    {
      "inputs": [
        {
          "internalType": "bytes32",
          "name": "_credentialHash",
          "type": "bytes32"
        },
        {
          "internalType": "bytes32",
          "name": "_accessToken",
          "type": "bytes32"
        }
      ],
      "name": "verifyCredential",
      "outputs": [
        {
          "components": [
            {
              "internalType": "address",
              "name": "issuer",
              "type": "address"
            },
            {
              "internalType": "address",
              "name": "holder",
              "type": "address"
            },
            {
              "internalType": "string",
              "name": "issuerName",
              "type": "string"
            },
            {
              "internalType": "string",
              "name": "holderName",
              "type": "string"
            },
            {
              "internalType": "string",
              "name": "title",
              "type": "string"
            },
            {
              "internalType": "string",
              "name": "description",
              "type": "string"
            },
            {
              "internalType": "uint256",
              "name": "dateIssued",
              "type": "uint256"
            },
            {
              "internalType": "uint256",
              "name": "dateExpired",
              "type": "uint256"
            },
            {
              "internalType": "bytes32",
              "name": "accessToken",
              "type": "bytes32"
            },
            {
              "internalType": "uint256",
              "name": "accessTokenValidUntil",
              "type": "uint256"
            }
          ],
          "internalType": "struct CredentialVerification.Credential",
          "name": "",
          "type": "tuple"
        }
      ],
      "stateMutability": "view",
      "type": "function"
    }
  ],
  "bytecode": "0x60806040523480156200001157600080fd5b506200001f60003362000051565b6200004b7f114e74f6ea3bd819998f78687bfcb11b140da08e9b7d222fa9c1f1ba1f2aa1223362000051565b62000101565b6200005d828262000061565b5050565b6000828152602081815260408083206001600160a01b038516845290915290205460ff166200005d576000828152602081815260408083206001600160a01b03851684529091529020805460ff19166001179055620000bd3390565b6001600160a01b0316816001600160a01b0316837f2f8788117e7eff1d82e926ec794901d17c78024a50270940304540a733656f0d60405160405180910390a45050565b6119a680620001116000396000f3fe608060405234801561001057600080fd5b50600436106100ea5760003560e01c8063416e18af1161008c578063a217fddf11610066578063a217fddf14610203578063a353ff8f1461020b578063c8fba2981461021e578063d547741f1461023f57600080fd5b8063416e18af146101b657806382aefa24146101c957806391d14854146101f057600080fd5b80631fe2832b116100c85780631fe2832b14610158578063248a9ca31461016d5780632f2ff15d1461019057806336568abe146101a357600080fd5b806301ffc9a7146100ef57806306ab4601146101175780630b0f2b5614610137575b600080fd5b6101026100fd366004611349565b610252565b60405190151581526020015b60405180910390f35b61012a61012536600461138f565b610289565b60405161010e91906114dd565b61014a6101453660046114f0565b610574565b60405190815260200161010e565b61016b61016636600461151c565b610634565b005b61014a61017b36600461151c565b60009081526020819052604090206001015490565b61016b61019e3660046114f0565b610766565b61016b6101b13660046114f0565b610790565b61014a6101c43660046115d8565b61080e565b61014a7f114e74f6ea3bd819998f78687bfcb11b140da08e9b7d222fa9c1f1ba1f2aa12281565b6101026101fe3660046114f0565b610a70565b61014a600081565b61012a6102193660046116a9565b610a99565b61023161022c3660046116cb565b610b49565b60405161010e9291906116e6565b61016b61024d3660046114f0565b610f1f565b60006001600160e01b03198216637965db0b60e01b148061028357506301ffc9a760e01b6001600160e01b03198316145b92915050565b610291611248565b600082815260016020819052604090912001546001600160a01b038481169116146102bb57600080fd5b60008281526001602081815260409283902083516101408101855281546001600160a01b039081168252938201549093169183019190915260028101805491938492908401919061030b90611781565b80601f016020809104026020016040519081016040528092919081815260200182805461033790611781565b80156103845780601f1061035957610100808354040283529160200191610384565b820191906000526020600020905b81548152906001019060200180831161036757829003601f168201915b5050505050815260200160038201805461039d90611781565b80601f01602080910402602001604051908101604052809291908181526020018280546103c990611781565b80156104165780601f106103eb57610100808354040283529160200191610416565b820191906000526020600020905b8154815290600101906020018083116103f957829003601f168201915b5050505050815260200160048201805461042f90611781565b80601f016020809104026020016040519081016040528092919081815260200182805461045b90611781565b80156104a85780601f1061047d576101008083540402835291602001916104a8565b820191906000526020600020905b81548152906001019060200180831161048b57829003601f168201915b505050505081526020016005820180546104c190611781565b80601f01602080910402602001604051908101604052809291908181526020018280546104ed90611781565b801561053a5780601f1061050f5761010080835404028352916020019161053a565b820191906000526020600020905b81548152906001019060200180831161051d57829003601f168201915b5050505050815260200160068201548152602001600782015481526020016008820154815260200160098201548152505091505092915050565b6000828152600160208190526040822001546001600160a01b03838116911614806105b857506000838152600160205260409020546001600160a01b038381169116145b61061d5760405162461bcd60e51b815260206004820152602b60248201527f546869732066756e6374696f6e206973206f6e6c7920666f7220686f6c64657260448201526a206f72206973737565722160a81b60648201526084015b60405180910390fd5b505060009081526001602052604090206008015490565b600081815260016020819052604090912001546001600160a01b031633148061067357506000818152600160205260409020546001600160a01b031633145b6106c95760405162461bcd60e51b815260206004820152602160248201527f546869732066756e6374696f6e206973206f6e6c7920666f7220686f6c6465726044820152602160f81b6064820152608401610614565b6040805142602082015290810182905260009060600160408051601f198184030181529181528151602092830120600085815260019093529120600801819055905061071842620697806117d2565b600083815260016020908152604091829020600901929092555182815283917f0a8262908f14f7e57f20deade6492a1493a8f41110ad012cf1882fd3fb21caa8910160405180910390a25050565b60008281526020819052604090206001015461078181610f44565b61078b8383610f51565b505050565b6001600160a01b03811633146108005760405162461bcd60e51b815260206004820152602f60248201527f416363657373436f6e74726f6c3a2063616e206f6e6c792072656e6f756e636560448201526e103937b632b9903337b91039b2b63360891b6064820152608401610614565b61080a8282610fd5565b5050565b600061083a7f114e74f6ea3bd819998f78687bfcb11b140da08e9b7d222fa9c1f1ba1f2aa12233610a70565b61089d5760405162461bcd60e51b815260206004820152602e60248201527f596f75206d75737420686176652069737375657220726f6c6520746f2069737360448201526d75652063726564656e7469616c7360901b6064820152608401610614565b600033898989898989896040516020016108be9897969594939291906117ea565b60408051601f198184030181528282528051602080830191909120610140850184523385526001600160a01b038e81168684019081528686018f8152606088018f9052608088018e905260a088018d905260c088018c905260e088018b905261010088018490524261012089015260008481526001808752979020885181549085166001600160a01b031991821617825592519781018054989094169790921696909617909155935180519396509094939261098092600285019201906112b0565b506060820151805161099c9160038401916020909101906112b0565b50608082015180516109b89160048401916020909101906112b0565b5060a082015180516109d49160058401916020909101906112b0565b5060c0820151600682015560e08201516007820155610100820151600882015561012090910151600990910155610a0a81610634565b6001600160a01b038a16600081815260026020908152604080832080546001810182559084529183209091018490555133929184917f46218325ae5400e953a42f394a867b47fbadc52a5df8b104ef5980205dc31f039190a49998505050505050505050565b6000918252602082815260408084206001600160a01b0393909316845291905290205460ff1690565b610aa1611248565b6000838152600160205260409020600801548214610af95760405162461bcd60e51b8152602060048201526015602482015274496e76616c69642061636365737320746f6b656e2160581b6044820152606401610614565b60008381526001602081815260409283902083516101408101855281546001600160a01b039081168252938201549093169183019190915260028101805491938492908401919061030b90611781565b6001600160a01b0381166000908152600260209081526040808320805482518185028101850190935280835260609485949093929190830182828015610bae57602002820191906000526020600020905b815481526020019060010190808311610b9a575b505050505090506000815167ffffffffffffffff811115610bd157610bd1611535565b604051908082528060200260200182016040528015610c0a57816020015b610bf7611248565b815260200190600190039081610bef5790505b50905060005b8251811015610f155760016000848381518110610c2f57610c2f611881565b602090810291909101810151825281810192909252604090810160002081516101408101835281546001600160a01b039081168252600183015416938101939093526002810180549192840191610c8590611781565b80601f0160208091040260200160405190810160405280929190818152602001828054610cb190611781565b8015610cfe5780601f10610cd357610100808354040283529160200191610cfe565b820191906000526020600020905b815481529060010190602001808311610ce157829003601f168201915b50505050508152602001600382018054610d1790611781565b80601f0160208091040260200160405190810160405280929190818152602001828054610d4390611781565b8015610d905780601f10610d6557610100808354040283529160200191610d90565b820191906000526020600020905b815481529060010190602001808311610d7357829003601f168201915b50505050508152602001600482018054610da990611781565b80601f0160208091040260200160405190810160405280929190818152602001828054610dd590611781565b8015610e225780601f10610df757610100808354040283529160200191610e22565b820191906000526020600020905b815481529060010190602001808311610e0557829003601f168201915b50505050508152602001600582018054610e3b90611781565b80601f0160208091040260200160405190810160405280929190818152602001828054610e6790611781565b8015610eb45780601f10610e8957610100808354040283529160200191610eb4565b820191906000526020600020905b815481529060010190602001808311610e9757829003601f168201915b50505050508152602001600682015481526020016007820154815260200160088201548152602001600982015481525050828281518110610ef757610ef7611881565b60200260200101819052508080610f0d90611897565b915050610c10565b5094909350915050565b600082815260208190526040902060010154610f3a81610f44565b61078b8383610fd5565b610f4e813361103a565b50565b610f5b8282610a70565b61080a576000828152602081815260408083206001600160a01b03851684529091529020805460ff19166001179055610f913390565b6001600160a01b0316816001600160a01b0316837f2f8788117e7eff1d82e926ec794901d17c78024a50270940304540a733656f0d60405160405180910390a45050565b610fdf8282610a70565b1561080a576000828152602081815260408083206001600160a01b0385168085529252808320805460ff1916905551339285917ff6391f5c32d9c69d2a47ea670b442974b53935d1edc7fd64eb21e047a839171b9190a45050565b6110448282610a70565b61080a5761105181611093565b61105c8360206110a5565b60405160200161106d9291906118b2565b60408051601f198184030181529082905262461bcd60e51b825261061491600401611927565b60606102836001600160a01b03831660145b606060006110b483600261193a565b6110bf9060026117d2565b67ffffffffffffffff8111156110d7576110d7611535565b6040519080825280601f01601f191660200182016040528015611101576020820181803683370190505b509050600360fc1b8160008151811061111c5761111c611881565b60200101906001600160f81b031916908160001a905350600f60fb1b8160018151811061114b5761114b611881565b60200101906001600160f81b031916908160001a905350600061116f84600261193a565b61117a9060016117d2565b90505b60018111156111f2576f181899199a1a9b1b9c1cb0b131b232b360811b85600f16601081106111ae576111ae611881565b1a60f81b8282815181106111c4576111c4611881565b60200101906001600160f81b031916908160001a90535060049490941c936111eb81611959565b905061117d565b5083156112415760405162461bcd60e51b815260206004820181905260248201527f537472696e67733a20686578206c656e67746820696e73756666696369656e746044820152606401610614565b9392505050565b60405180610140016040528060006001600160a01b0316815260200160006001600160a01b0316815260200160608152602001606081526020016060815260200160608152602001600081526020016000815260200160008019168152602001600081525090565b8280546112bc90611781565b90600052602060002090601f0160209004810192826112de5760008555611324565b82601f106112f757805160ff1916838001178555611324565b82800160010185558215611324579182015b82811115611324578251825591602001919060010190611309565b50611330929150611334565b5090565b5b808211156113305760008155600101611335565b60006020828403121561135b57600080fd5b81356001600160e01b03198116811461124157600080fd5b80356001600160a01b038116811461138a57600080fd5b919050565b600080604083850312156113a257600080fd5b6113ab83611373565b946020939093013593505050565b60005b838110156113d45781810151838201526020016113bc565b838111156113e3576000848401525b50505050565b600081518084526114018160208601602086016113b9565b601f01601f19169290920160200192915050565b80516001600160a01b031682526000610140602083015161144160208601826001600160a01b03169052565b506040830151816040860152611459828601826113e9565b9150506060830151848203606086015261147382826113e9565b9150506080830151848203608086015261148d82826113e9565b91505060a083015184820360a08601526114a782826113e9565b60c0858101519087015260e080860151908701526101008086015190870152610120948501519490950193909352509192915050565b6020815260006112416020830184611415565b6000806040838503121561150357600080fd5b8235915061151360208401611373565b90509250929050565b60006020828403121561152e57600080fd5b5035919050565b634e487b7160e01b600052604160045260246000fd5b600082601f83011261155c57600080fd5b813567ffffffffffffffff8082111561157757611577611535565b604051601f8301601f19908116603f0116810190828211818310171561159f5761159f611535565b816040528381528660208588010111156115b857600080fd5b836020870160208301376000602085830101528094505050505092915050565b600080600080600080600060e0888a0312156115f357600080fd5b6115fc88611373565b9650602088013567ffffffffffffffff8082111561161957600080fd5b6116258b838c0161154b565b975060408a013591508082111561163b57600080fd5b6116478b838c0161154b565b965060608a013591508082111561165d57600080fd5b6116698b838c0161154b565b955060808a013591508082111561167f57600080fd5b5061168c8a828b0161154b565b93505060a0880135915060c0880135905092959891949750929550565b600080604083850312156116bc57600080fd5b50508035926020909101359150565b6000602082840312156116dd57600080fd5b61124182611373565b6000604082016040835280855180835260608501915060608160051b8601019250602080880160005b8381101561173d57605f1988870301855261172b868351611415565b9550938201939082019060010161170f565b50508584038187015286518085528782019482019350915060005b8281101561177457845184529381019392810192600101611758565b5091979650505050505050565b600181811c9082168061179557607f821691505b602082108114156117b657634e487b7160e01b600052602260045260246000fd5b50919050565b634e487b7160e01b600052601160045260246000fd5b600082198211156117e5576117e56117bc565b500190565b60006bffffffffffffffffffffffff19808b60601b168352808a60601b166014840152508751611821816028850160208c016113b9565b875190830190611838816028840160208c016113b9565b875191019061184e816028840160208b016113b9565b8651910190611864816028840160208a016113b9565b016028810194909452505060488201526068019695505050505050565b634e487b7160e01b600052603260045260246000fd5b60006000198214156118ab576118ab6117bc565b5060010190565b7f416363657373436f6e74726f6c3a206163636f756e74200000000000000000008152600083516118ea8160178501602088016113b9565b7001034b99036b4b9b9b4b733903937b6329607d1b601791840191820152835161191b8160288401602088016113b9565b01602801949350505050565b60208152600061124160208301846113e9565b6000816000190483118215151615611954576119546117bc565b500290565b600081611968576119686117bc565b50600019019056fea2646970667358221220e19dc4da23e8483332797087f5108c0bdbefe621be4ae8a61b30cb6828b5b07a64736f6c63430008090033",
  "linkReferences": {},
  "deployedLinkReferences": {}
}